{
  "contractName": "ContractCaller",
  "abi": [
    {
      "inputs": [
        {
          "internalType": "address",
          "name": "_contractAddress",
          "type": "address"
        }
      ],
      "name": "incrementsCount",
      "outputs": [],
      "stateMutability": "nonpayable",
      "type": "function"
    }
  ],
  "bytecode": "0x608060405234801561001057600080fd5b5061010b806100206000396000f3fe6080604052348015600f57600080fd5b506004361060285760003560e01c80631ed89fa814602d575b600080fd5b606c60048036036020811015604157600080fd5b81019080803573ffffffffffffffffffffffffffffffffffffffff169060200190929190505050606e565b005b60008190508073ffffffffffffffffffffffffffffffffffffffff1663d09de08a6040518163ffffffff1660e01b8152600401600060405180830381600087803b15801560ba57600080fd5b505af115801560cd573d6000803e3d6000fd5b50505050505056fea26469706673582212207b437cd877c1877532c525e7b7762754c00fa48795fb89455f1dc5d0eafec3e964736f6c63430006000033",
  "source": "pragma solidity ^0.6.0;\r\n\r\n\r\ninterface Count {\r\n    function increment() external;\r\n}\r\n\r\ncontract ContractCaller {\r\n\r\n    function incrementsCount(address _contractAddress) public {\r\n        Count CountContract = Count(_contractAddress);\r\n        CountContract.increment();\r\n    }\r\n\r\n}",
  "sourcePath": "C:/Users/jarha/Desktop/contract-interaction/contracts/ContractCaller.sol",
  "compiler": {
    "name": "solc",
    "version": "0.6.0+commit.26b70077.Emscripten.clang"
  },
  "schemaVersion": "3.0.20",
  "updatedAt": "2021-03-07T20:54:03.621Z",
  "networkType": "ethereum",
  "devdoc": {
    "methods": {}
  },
  "userdoc": {
    "methods": {}
  }
}